:1000000012C021C020C01FC01EC01DC01CC01BC00C
:100010001AC019C018C017C016C015C014C013C02C
:1000200012C011C010C011241FBECFE5D4E0DEBF46
:10003000CDBF20E0A0E6B0E001C01D92A436B2071B
:10004000E1F76ED097C0DCCFAD9885E48A95F1F7E3
:100050000000AD9A85E48A95F1F700000895CF93EA
:1000600081110CC0C6E1F0DFC150E9F7AD988BEC0F
:1000700098E00197F1F700C000000DC0813059F4FD
:10008000C6E1E2DFC150E9F7AD988BE59AE101974F
:10009000F1F700C00000CF910895FF920F931F93D6
:1000A000CF93DF93F82EC7E0D0E001E010E0980195
:1000B0000C2E02C0220F331F0A94E2F72F2119F4ED
:1000C00080E0CDDF02C081E0CADF219780F7DF91B9
:1000D000CF911F910F91FF9008951F93CF93DF93BE
:1000E000182FD62FCDEAB0DFC150E9F78FE496E4A0
:1000F0000197F1F700C00000812FCFDF812F80959D
:10010000CCDF8D2FCADF8D2F8095C7DF81E0A7DF81
:10011000DF91CF911F91089514BAA59AAD980895D3
:10012000FBDF83B380728093620093B390719093EE
:10013000600023B328702093630033B3347030938E
:100140006100811104C061E081E0C7DF11C091113D
:1001500004C062E081E0C1DF0BC0211104C063E094
:1001600081E0BBDF05C0311103C064E081E0B5DF91
:08017000AD98D7CFF894FFCF42
:00000001FF
