:100000000C94E10118951895189518951895189560
:100010001895189518951895189518951895189578
:100020001895189518951895189518951895189568
:100030001895189518951895189518951895189558
:100040001895189518951895189518951895189548
:100050001895189518951895189518951895189538
:100060001895189518951895189518951895189528
:100070001895189518951895189518951895189518
:100080001895189518951895189518950E9462025C
:10009000602ECA01DB0100E014E224EF30E04801E9
:1000A0005901AC01BD0100E110E020E030E00E9408
:1000B0001F02A801B901840195010E943F0201506D
:1000C00010402801662081F48201012F00939000E6
:1000D000042D09B900E20BB908E10AB906E0009362
:1000E00095001098119A579A01E0601691F48201D8
:1000F000012F00939800042D0093990000E20093D3
:100100009B0008E100939A0006E000939D008A9806
:100110008B9AECE00C946F02102F012F005019F015
:100120000A9589F024C05F990CC0042F052B062B7B
:10013000072B11F4042F0895415050406040704047
:10014000F2CF0CB1089500919B00202F27FD0CC029
:10015000042F052B062B072B11F4042F0895415073
:10016000504060407040EFCF00919C00089500E047
:100170000895202F205019F02A9529F008955D9BAD
:10018000FECF1CB9089520919B00322F35FFFBCF85
:1001900010939C0008950E946802502E412E922FC9
:1001A0000FEF009340020FEF009341025092420282
:1001B000092F0E5F009343024092440280E08917AA
:1001C00070F4082F10E0F801E05CFE4F2081082F4A
:1001D00010E0F801E05CFD4F25838395F0CFB0E09F
:1001E000092F0A5FA02F82E0082F10E0EA2FF0E02D
:1001F00031970E171F074CF4082F10E0F801E05C50
:10020000FD4F0081B00F8395EFCF2B2F2095082F46
:1002100010E0F801E05CFD4F20831B981A9A80E003
:100220008A1758F45E9A082F10E0F801E05CFD4F41
:10023000108100E09EDF8395F3CF5E9BFECF1A987E
:100240001B9A0A2FE6E00C9475020E946902A0E254
:10025000BEE4A5D080E00A2F0B2B21F41EE201E0C2
:1002600088DFF9CF00919C000093C00101E054DFCA
:100270000093C10101E050DF0093C20101E04CDFB7
:100280000093C30101E048DF0093C4010091C30162
:100290001091C401100F812F082F10E040E051E0B1
:1002A0000E940B02842F8F3F21F013E301E061DFF6
:1002B000D2CF0091C301402E93E080E08F3F09F43C
:1002C0004EC0992309F44BC004E20093400102E0C0
:1002D0000093410122E012E0042D5DDF1298129A92
:1002E00000E01ADF0093C00100E016DF0093C101B7
:1002F00000E012DF0093C20100E00EDF0093C301B3
:1003000000E00ADF0093C40100E006DF0093C501AE
:1003100000E002DF0093C60100E0FEDE0093C701AB
:100320009A950091C201041549F60091C2011091FD
:10033000C301100F0091C401010F1091C501100FEE
:100340000091C601010F1091C701100F812F082FD6
:1003500010E040E051E00E940B02842FAFCF9923C0
:1003600009F479CF0FEF1091C501011B1091C6015F
:10037000011B802F1FEF01E0FCDE1FEF01E0F9DE23
:100380001FEF01E0F6DE1091C50101E0F2DE1091F1
:10039000C60101E0EEDE182F01E0EBDE5CCFF89441
:1003A00040E452E46FE070E000E070DE40E051EEC7
:1003B00060E070E001E06ADE7894089500008895BE
:1003C000FECF0FE30DBF01E00EBFC0E2D1E00E94FF
:1003D0008202002311F00E9494020E9425010E94D3
:1003E000DE010C94DE0100241124EFE0001F111F38
:1003F000001C111C0416150610F0041A150AEA95C3
:10040000AAF7001F111FA00100951095089551959E
:10041000419550400895FF27552312F4F160F7DF0E
:10042000112312F4F09507D00E94F301F0FD03D0E0
:10043000F1FDEDCF08951195019510400895222406
:10044000349F302D259F300D169F300D079F300DA6
:10045000249F202D310D159F200D311D069F200D4D
:10046000311D149F102D210D321D059F100D211DD2
:10047000321D049F002D110D221D321D08950024F0
:1004800011241001E0E2EA9592F0001F111F221FD3
:10049000331F001C111C221C331C041615062606D3
:1004A000370688F3041A150A260A370AECCF001F0C
:1004B000111F221F331FA001B10100951095209537
:1004C00030950895BA92AA929A928A927A926A92F2
:1004D0005A924A92BA93AA939A938A930895BB84A4
:1004E000AA84998488847F806E805D804C80BB81E3
:1004F000AA8199818881F0E00FB6F894CE0FDF1FB2
:100500000FBE089501E0089520E008D0E9F70895AE
:100510003BBF27913BB702D0D9F708952D930150E7
:100520001040202F212B089508E8402E05E0502E82
:1005300000E0602EF201362D6BBE07911691F2019C
:10054000EE5FFF4F3F4F3BBFA791B691F201362DB3
:10055000EC5FFF4F3F4F3BBF479157916691242F70
:10056000252B262B21F0FA01362FD2DF01C0CCDF5C
:1005700007E0400E00E0501E601EA201662D4F38BD
:0F05800055406040B8F20895800140010000002E
:00000001FF
:00000001FF
