:1000000012C08BC020C01FC01EC01DC01CC01BC0A2
:100010001AC0C2C018C017C016C015C014C013C083
:1000200012C011C010C011241FBECFE5D4E0DEBF46
:10003000CDBF20E0A0E6B0E001C01D92A738B20716
:10004000E1F7E1D075C1DCCF662341F0282FE82F1E
:10005000F92F11928E2F821B8617D8F30895CF9314
:10006000362F3770E9F4611114C01AC0990F31911D
:10007000932B382F3770373041F4721730F4DA0190
:10008000A70FB11D9C937F5F9C2F8F5F8613EECFD0
:1000900007C0E82FF92F919180E070E0C0E0F5CF24
:1000A000CF91089583B7816083BF83B7826083BF98
:1000B00087EE82BF81E089BF0895809185008730F7
:1000C00080F080918500813160F4E0918600F0E05D
:1000D000EB59FF4F1082809186008F5F80938600DE
:1000E000089580918500813188F0809185008B3161
:1000F00068F4E0918600F0E0EB59FF4F81E08083E7
:10010000809186008F5F80938600089560E285E687
:1001100090E09ADF1092860008951F920F920FB61A
:100120000F9211242F933F934F935F936F937F937D
:100130008F939F93AF93BF93EF93FF938FB78F7777
:100140008FBFBBDF80918600803280F024E041E6E3
:1001500050E060E285E690E082DF60E285E690E0D4
:1001600073DF1092860081E080936000109285001A
:100170008FB780688FBFFF91EF91BF91AF919F9133
:100180008F917F916F915F914F913F912F910F9040
:100190000FBE0F901F9018951F920F920FB60F92DF
:1001A00011248F938FB78F778FBF809185008F5FDA
:1001B0008093850087EE82BF8FB780688FBF8F9155
:1001C0000F900FBE0F901F901895829885B7826090
:1001D00085BF85B78E7F85BF8BB780648BBF089541
:1001E0008FB78F778FBFF1DF5DDF889A8FEF87BB87
:1001F00018BAC19AC29A10928500109286008FB7E1
:1002000080688FBF0895ECDF8FEF84BBC1E6D0E03C
:100210000F2EF2E6EF2EF0E0FF2EF02D03E610E0B9
:100220000F2EF4E6CF2EF0E0DF2EF02D809160004F
:10023000813009F078C0909A8FB78F778FBF88810F
:10024000803209F068C0F70180818F3D09F063C0FA
:10025000F80180818034C1F4F60180818F3BA1F4E4
:10026000AD9AAC9AFFEF23EC89E0F150204080403A
:10027000E1F700C000008881803209F04CC0F7012E
:1002800080818F3D09F047C0F8018081803CB1F446
:10029000F60180818F3391F4AB9AA89AFFEF23EC9B
:1002A00089E0F15020408040E1F700C000008881E3
:1002B000803289F5F70180818F3D69F5F8018081F1
:1002C000811116C0F60180818F3F91F4AD9AA89AF2
:1002D000FFEF22E587E0F15020408040E1F700C0C9
:1002E000000088818032B9F4F70180818F3D99F454
:1002F000F8018081803879F4F60180818F3759F4D4
:10030000AB9AAC9AFFEF22E587E0F15020408040A5
:10031000E1F700C0000064E0CE0196DE10926000BC
:100320008FB780688FBF85B3867085BB90987ECF6E
:04033000F894FFCF6F
:00000001FF
