:1000000045C0000053C0000051C000004FC00000B8
:100010004DC000004BC0000049C0000047C00000B8
:1000200045C0000043C0000041C000003FC00000C8
:100030003DC000003BC0000039C0000037C00000D8
:1000400035C0000033C000003EC100002FC00000DA
:100050002DC000002BC0000029C0000027C00000F8
:1000600025C0000023C0000021C000001FC0000008
:100070001DC000001BC00000CEC0000017C0000063
:1000800015C0000013C0000011C0000011241FBEE5
:10009000CFEFD0E1DEBFCDBF22E0A0E0B1E001C0F4
:1000A0001D92A232B207E1F787D121C2A9CFFF92F8
:1000B0000F931F93CF93DF939FEF90930001909343
:1000C000010180930201842F8E5F8093030160936E
:1000D0000401442309F442C0E0E8F1E0A5E0B1E006
:1000E000242F215030E02F573E4F91919D93E217DE
:1000F000F307D9F70F2EF6E0FF2EF02DF40E6F2D3B
:1001000070E0615071096330710574F522E030E0F0
:1001100090E00BC0F901E050FF4F2081920F8F5FFC
:10012000282F30E026173707ACF3F901E050FF4FD6
:10013000909590831A9AFF2071F0C0E0D1E00F2DC6
:10014000015010E00F5F1E4F5E9A699180E09CD1D4
:10015000C017D107C9F75E9BFECF0BC065E070E00A
:100160000F2EF6E0FF2EF02D22E030E090E082E04E
:10017000D1CF1A988F2DDF91CF911F910F91FF90C2
:10018000089593E0909380018093810142E063E0C1
:100190008EEF8DDF80930002089595E090938001AB
:1001A0008093820142E063E08EEF81DF8093000262
:1001B00008950F939EE19093800140938101609395
:1001C0008201009383012093840145E063E06FDFA7
:1001D000809300020F91089598E1909380016093BD
:1001E000810142E063E063DF80930002089594E2BE
:1001F0009093800192E09093810142E062E057CFBA
:10020000662341F0282FE82FF92F11928E2F821BA1
:100210008617D8F308951F920F920FB60F921124EC
:100220000BB60F920F932F933F934F935F936F9360
:100230007F938F939F93AF93BF93EF93FF938FB76A
:100240008F778FBF80919C008336B1F028F4813680
:1002500049F0823609F509C08536C9F0A0F0873625
:10026000D9F418C081E08DDF17C00FEF23E04FEF06
:1002700061E08EEF9EDF10C00FEF23E040E060E012
:100280008EEF97DF09C060E08EEFA6DF05C081E04A
:10029000AEDF02C08AEF81DF8FB780688FBFFF912A
:1002A000EF91BF91AF919F918F917F916F915F91EE
:1002B0004F913F912F910F910F900BBE0F900FBE5A
:1002C0000F901F9018951F920F920FB60F92112446
:1002D0000BB60F922F933F934F935F936F937F9340
:1002E0008F939F93AF93BF93EF93FF938FB78F77C6
:1002F0008FBF8CB1E0910102F0E0E65EFD4F80839C
:10030000809101028F5F8093010280910102883009
:10031000C9F420911C0240911F0230912002E22F6B
:10032000F0E03197CF01880F991FE80FF91FEE5FBA
:10033000FD4F20834183328368E08AE192E060DFF1
:10034000109201028FB780688FBFFF91EF91BF912C
:10035000AF919F918F917F916F915F914F913F915D
:100360002F910F900BBE0F900FBE0F901F901895FE
:100370008FB78F778FBF129A13B840E452E46FE0C3
:1003800070E080E042D040E051EE60E070E081E05B
:100390003CD08FB780688FBF0895CF93DF93D72F5E
:1003A000C82F81E071D06D2F81E06ED06C2F81E07D
:1003B0006BD0DF91CF910895DBDF00E010E061E6C4
:1003C00080E062D061E681E05FD0C1E08C2F0FDF7A
:1003D000CF5FC930D9F7E801FE01EE0FFF1FEC0F28
:1003E000FD1FEE5FFD4F608171818281D6DF219616
:1003F000C830D10589F72FEF89E698E12150804078
:100400009040E1F700C00000DACFCF93C82FDB01A6
:10041000CA01880F991FAA1FBB1F880F991FAA1F07
:10042000BB1F9C01AD01220F331F441F551F220F1C
:10043000331F441F551F60E074E284EF90E035D015
:1004400021503109C1110DC03093900029B980E2CB
:100450008BB988E98AB986E0809395001098119A43
:1004600011C0C13079F4309398002093990080E254
:1004700080939B0088E980939A0086E080939D009A
:100480008A988B9ACF910895882319F0813061F46E
:1004900004C05D9BFECF6CB90895EBE9F0E080816C
:1004A00085FFFDCF60939C000895A1E21A2EAA1B40
:1004B000BB1BFD010DC0AA1FBB1FEE1FFF1FA21714
:1004C000B307E407F50720F0A21BB30BE40BF50B11
:1004D000661F771F881F991F1A9469F7609570959A
:1004E000809590959B01AC01BD01CF010895F894D2
:0204F000FFCF3C
:00000001FF
